{
  "contractName": "AssetRegistry",
  "abi": [
    {
      "constant": true,
      "inputs": [],
      "name": "paymentContract",
      "outputs": [
        {
          "name": "",
          "type": "address"
        }
      ],
      "payable": false,
      "stateMutability": "view",
      "type": "function"
    },
    {
      "constant": true,
      "inputs": [
        {
          "name": "",
          "type": "address"
        },
        {
          "name": "",
          "type": "uint256"
        }
      ],
      "name": "assetsPerOnwer",
      "outputs": [
        {
          "name": "",
          "type": "address"
        }
      ],
      "payable": false,
      "stateMutability": "view",
      "type": "function"
    },
    {
      "inputs": [
        {
          "name": "_paymentContract",
          "type": "address"
        }
      ],
      "payable": false,
      "stateMutability": "nonpayable",
      "type": "constructor"
    },
    {
      "anonymous": false,
      "inputs": [
        {
          "indexed": true,
          "name": "_owner",
          "type": "address"
        },
        {
          "indexed": true,
          "name": "_asset",
          "type": "address"
        }
      ],
      "name": "AssetDeployedEvent",
      "type": "event"
    },
    {
      "constant": false,
      "inputs": [
        {
          "name": "_assetId",
          "type": "string"
        },
        {
          "name": "_price",
          "type": "uint256"
        },
        {
          "name": "_authors",
          "type": "address[]"
        }
      ],
      "name": "deployAssetContract",
      "outputs": [
        {
          "name": "",
          "type": "address"
        }
      ],
      "payable": false,
      "stateMutability": "nonpayable",
      "type": "function"
    },
    {
      "constant": true,
      "inputs": [
        {
          "name": "_assetOwner",
          "type": "address"
        }
      ],
      "name": "getAssetByOwner",
      "outputs": [
        {
          "name": "",
          "type": "address[]"
        }
      ],
      "payable": false,
      "stateMutability": "view",
      "type": "function"
    }
  ],
  "bytecode": "0x608060405234801561001057600080fd5b5060405160208061201a83398101806040528101908080519060200190929190505050806000806101000a81548173ffffffffffffffffffffffffffffffffffffffff021916908373ffffffffffffffffffffffffffffffffffffffff16021790555050611f97806100836000396000f300608060405260043610610062576000357c0100000000000000000000000000000000000000000000000000000000900463ffffffff1680630a4e4fee1461006757806365e092ae1461015d5780639c91dd56146101f5578063c11ca4701461024c575b600080fd5b34801561007357600080fd5b5061011b600480360381019080803590602001908201803590602001908080601f016020809104026020016040519081016040528093929190818152602001838380828437820191505050505050919291929080359060200190929190803590602001908201803590602001908080602002602001604051908101604052809392919081815260200183836020028082843782019150505050505091929192905050506102d9565b604051808273ffffffffffffffffffffffffffffffffffffffff1673ffffffffffffffffffffffffffffffffffffffff16815260200191505060405180910390f35b34801561016957600080fd5b5061019e600480360381019080803573ffffffffffffffffffffffffffffffffffffffff169060200190929190505050610555565b6040518080602001828103825283818151815260200191508051906020019060200280838360005b838110156101e15780820151818401526020810190506101c6565b505050509050019250505060405180910390f35b34801561020157600080fd5b5061020a610622565b604051808273ffffffffffffffffffffffffffffffffffffffff1673ffffffffffffffffffffffffffffffffffffffff16815260200191505060405180910390f35b34801561025857600080fd5b50610297600480360381019080803573ffffffffffffffffffffffffffffffffffffffff16906020019092919080359060200190929190505050610647565b604051808273ffffffffffffffffffffffffffffffffffffffff1673ffffffffffffffffffffffffffffffffffffffff16815260200191505060405180910390f35b600080848484336000809054906101000a900473ffffffffffffffffffffffffffffffffffffffff1661030a610694565b8080602001868152602001806020018573ffffffffffffffffffffffffffffffffffffffff1673ffffffffffffffffffffffffffffffffffffffff1681526020018473ffffffffffffffffffffffffffffffffffffffff1673ffffffffffffffffffffffffffffffffffffffff168152602001838103835288818151815260200191508051906020019080838360005b838110156103b557808201518184015260208101905061039a565b50505050905090810190601f1680156103e25780820380516001836020036101000a031916815260200191505b50838103825286818151815260200191508051906020019060200280838360005b8381101561041e578082015181840152602081019050610403565b50505050905001975050505050505050604051809103906000f08015801561044a573d6000803e3d6000fd5b509050600160003373ffffffffffffffffffffffffffffffffffffffff1673ffffffffffffffffffffffffffffffffffffffff1681526020019081526020016000208190806001815401808255809150509060018203906000526020600020016000909192909190916101000a81548173ffffffffffffffffffffffffffffffffffffffff021916908373ffffffffffffffffffffffffffffffffffffffff160217905550508073ffffffffffffffffffffffffffffffffffffffff163373ffffffffffffffffffffffffffffffffffffffff167f752eba6d03a402f2abd8df765d33adfc547ab2aba0ae4ddfe010c4e5ec88f48060405160405180910390a3809150509392505050565b6060600160008373ffffffffffffffffffffffffffffffffffffffff1673ffffffffffffffffffffffffffffffffffffffff16815260200190815260200160002080548060200260200160405190810160405280929190818152602001828054801561061657602002820191906000526020600020905b8160009054906101000a900473ffffffffffffffffffffffffffffffffffffffff1673ffffffffffffffffffffffffffffffffffffffff16815260200190600101908083116105cc575b50505050509050919050565b6000809054906101000a900473ffffffffffffffffffffffffffffffffffffffff1681565b60016020528160005260406000208181548110151561066257fe5b906000526020600020016000915091509054906101000a900473ffffffffffffffffffffffffffffffffffffffff1681565b6040516118c7806106a583390190560060806040523480156200001157600080fd5b50604051620018c7380380620018c7833981018060405281019080805182019291906020018051906020019092919080518201929190602001805190602001909291908051906020019092919050505060006200007d8662000222640100000000026401000000009004565b15156200008957600080fd5b600084511115156200009a57600080fd5b826000806101000a81548173ffffffffffffffffffffffffffffffffffffffff021916908373ffffffffffffffffffffffffffffffffffffffff1602179055508560019080519060200190620000f292919062000230565b5083600490805190602001906200010b929190620002b7565b5084600281905550600060038190555081600860006101000a81548173ffffffffffffffffffffffffffffffffffffffff021916908373ffffffffffffffffffffffffffffffffffffffff160217905550600090505b83518110156200021657604080519081016040528060008152602001600115158152506006600086848151811015156200019757fe5b9060200190602002015173ffffffffffffffffffffffffffffffffffffffff1673ffffffffffffffffffffffffffffffffffffffff1681526020019081526020016000206000820151816000015560208201518160010160006101000a81548160ff021916908315150217905550905050808060010191505062000161565b505050505050620003b4565b600080825114159050919050565b828054600181600116156101000203166002900490600052602060002090601f016020900481019282601f106200027357805160ff1916838001178555620002a4565b82800160010185558215620002a4579182015b82811115620002a357825182559160200191906001019062000286565b5b509050620002b3919062000346565b5090565b82805482825590600052602060002090810192821562000333579160200282015b82811115620003325782518260006101000a81548173ffffffffffffffffffffffffffffffffffffffff021916908373ffffffffffffffffffffffffffffffffffffffff16021790555091602001919060010190620002d8565b5b5090506200034291906200036e565b5090565b6200036b91905b80821115620003675760008160009055506001016200034d565b5090565b90565b620003b191905b80821115620003ad57600081816101000a81549073ffffffffffffffffffffffffffffffffffffffff02191690555060010162000375565b5090565b90565b61150380620003c46000396000f300608060405260043610610128576000357c0100000000000000000000000000000000000000000000000000000000900463ffffffff16806325ca819f1461050257806339f9c82c1461052d5780633db804da1461055857806344de240a146105c55780634c1d205f146106555780635b529adf146106805780636814800b146106ab57806375f96cf5146107065780637fc622f41461075157806397a993aa146107bd5780639c91dd56146108185780639e2b84881461086f578063a035b1fe146108dc578063a2b40d1914610907578063a843c51f14610934578063aba20eae14610977578063afabd49d146109bc578063b387ef9214610a3d578063b8d8776314610a94578063bd18332314610abf578063f3e92f6014610b21578063f42ae9d414610b6e575b6000806000806000806000600254341015151561014457600080fd5b620f4240610150610bc5565b14151561015c57600080fd5b349650600860009054906101000a900473ffffffffffffffffffffffffffffffffffffffff1673ffffffffffffffffffffffffffffffffffffffff166399a5d747886040518263ffffffff167c010000000000000000000000000000000000000000000000000000000002815260040180828152602001915050602060405180830381600087803b1580156101f057600080fd5b505af1158015610204573d6000803e3d6000fd5b505050506040513d602081101561021a57600080fd5b81019080805190602001909291905050509550600086111561034d57600860009054906101000a900473ffffffffffffffffffffffffffffffffffffffff1673ffffffffffffffffffffffffffffffffffffffff16630cbc27e26040518163ffffffff167c0100000000000000000000000000000000000000000000000000000000028152600401602060405180830381600087803b1580156102bc57600080fd5b505af11580156102d0573d6000803e3d6000fd5b505050506040513d60208110156102e657600080fd5b810190808051906020019092919050505094508473ffffffffffffffffffffffffffffffffffffffff166108fc879081150290604051600060405180830381858888f1935050505015801561033f573d6000803e3d6000fd5b5061034a8787610c81565b96505b600093505b6004805490508410156104405760048481548110151561036e57fe5b9060005260206000200160009054906101000a900473ffffffffffffffffffffffffffffffffffffffff169250600660008473ffffffffffffffffffffffffffffffffffffffff1673ffffffffffffffffffffffffffffffffffffffff16815260200190815260200160002091506103ea878360000154610c9a565b90508273ffffffffffffffffffffffffffffffffffffffff166108fc829081150290604051600060405180830381858888f19350505050158015610432573d6000803e3d6000fd5b508380600101945050610352565b61044d6003546001610ced565b6003819055506001600760003373ffffffffffffffffffffffffffffffffffffffff1673ffffffffffffffffffffffffffffffffffffffff16815260200190815260200160002060006101000a81548160ff0219169083151502179055503373ffffffffffffffffffffffffffffffffffffffff167ff7130aabb9c9cca18a579bcff1de84054de1ca07680f60eae1510bae7788f819346040518082815260200191505060405180910390a250505050505050005b34801561050e57600080fd5b50610517610d0b565b6040518082815260200191505060405180910390f35b34801561053957600080fd5b50610542610d11565b6040518082815260200191505060405180910390f35b34801561056457600080fd5b5061058360048036038101908080359060200190929190505050610d17565b604051808273ffffffffffffffffffffffffffffffffffffffff1673ffffffffffffffffffffffffffffffffffffffff16815260200191505060405180910390f35b3480156105d157600080fd5b506105da610d55565b6040518080602001828103825283818151815260200191508051906020019080838360005b8381101561061a5780820151818401526020810190506105ff565b50505050905090810190601f1680156106475780820380516001836020036101000a031916815260200191505b509250505060405180910390f35b34801561066157600080fd5b5061066a610df3565b6040518082815260200191505060405180910390f35b34801561068c57600080fd5b50610695610dfa565b6040518082815260200191505060405180910390f35b3480156106b757600080fd5b506106ec600480360381019080803573ffffffffffffffffffffffffffffffffffffffff169060200190929190505050610e01565b604051808215151515815260200191505060405180910390f35b34801561071257600080fd5b5061073b6004803603810190808035906020019092919080359060200190929190505050610c9a565b6040518082815260200191505060405180910390f35b34801561075d57600080fd5b50610766610e57565b6040518080602001828103825283818151815260200191508051906020019060200280838360005b838110156107a957808201518184015260208101905061078e565b505050509050019250505060405180910390f35b3480156107c957600080fd5b506107fe600480360381019080803573ffffffffffffffffffffffffffffffffffffffff169060200190929190505050610ee5565b604051808215151515815260200191505060405180910390f35b34801561082457600080fd5b5061082d610f05565b604051808273ffffffffffffffffffffffffffffffffffffffff1673ffffffffffffffffffffffffffffffffffffffff16815260200191505060405180910390f35b34801561087b57600080fd5b5061089a60048036038101908080359060200190929190505050610f2b565b604051808273ffffffffffffffffffffffffffffffffffffffff1673ffffffffffffffffffffffffffffffffffffffff16815260200191505060405180910390f35b3480156108e857600080fd5b506108f1610f6e565b6040518082815260200191505060405180910390f35b34801561091357600080fd5b5061093260048036038101908080359060200190929190505050610f74565b005b34801561094057600080fd5b50610975600480360381019080803573ffffffffffffffffffffffffffffffffffffffff169060200190929190505050611022565b005b34801561098357600080fd5b506109a2600480360381019080803590602001909291905050506111d3565b604051808215151515815260200191505060405180910390f35b3480156109c857600080fd5b50610a23600480360381019080803590602001908201803590602001908080601f0160208091040260200160405190810160405280939291908181526020018383808284378201915050505050509192919290505050611218565b604051808215151515815260200191505060405180910390f35b348015610a4957600080fd5b50610a52611226565b604051808273ffffffffffffffffffffffffffffffffffffffff1673ffffffffffffffffffffffffffffffffffffffff16815260200191505060405180910390f35b348015610aa057600080fd5b50610aa961124b565b6040518082815260200191505060405180910390f35b348015610acb57600080fd5b50610b00600480360381019080803573ffffffffffffffffffffffffffffffffffffffff169060200190929190505050611251565b60405180838152602001821515151581526020019250505060405180910390f35b348015610b2d57600080fd5b50610b6c600480360381019080803573ffffffffffffffffffffffffffffffffffffffff16906020019092919080359060200190929190505050611282565b005b348015610b7a57600080fd5b50610baf600480360381019080803573ffffffffffffffffffffffffffffffffffffffff169060200190929190505050611458565b6040518082815260200191505060405180910390f35b60008060008060009250600091505b600480549050821015610c785760066000600484815481101515610bf457fe5b9060005260206000200160009054906101000a900473ffffffffffffffffffffffffffffffffffffffff1673ffffffffffffffffffffffffffffffffffffffff1673ffffffffffffffffffffffffffffffffffffffff1681526020019081526020016000209050610c69838260000154610ced565b92508180600101925050610bd4565b82935050505090565b6000818310151515610c8f57fe5b818303905092915050565b6000620186a0821080610cbf5750620186a08210158015610cbe5750620f42408211155b5b15610ce357620f4240610cd284846114a4565b811515610cdb57fe5b049050610ce7565b8290505b92915050565b6000808284019050838110151515610d0157fe5b8091505092915050565b60055481565b60035481565b600481815481101515610d2657fe5b906000526020600020016000915054906101000a900473ffffffffffffffffffffffffffffffffffffffff1681565b60018054600181600116156101000203166002900480601f016020809104026020016040519081016040528092919081815260200182805460018160011615610100020316600290048015610deb5780601f10610dc057610100808354040283529160200191610deb565b820191906000526020600020905b815481529060010190602001808311610dce57829003601f168201915b505050505081565b620f424081565b620186a081565b6000600760008373ffffffffffffffffffffffffffffffffffffffff1673ffffffffffffffffffffffffffffffffffffffff16815260200190815260200160002060009054906101000a900460ff169050919050565b60606004805480602002602001604051908101604052809291908181526020018280548015610edb57602002820191906000526020600020905b8160009054906101000a900473ffffffffffffffffffffffffffffffffffffffff1673ffffffffffffffffffffffffffffffffffffffff1681526020019060010190808311610e91575b5050505050905090565b60076020528060005260406000206000915054906101000a900460ff1681565b600860009054906101000a900473ffffffffffffffffffffffffffffffffffffffff1681565b6000600482815481101515610f3c57fe5b9060005260206000200160009054906101000a900473ffffffffffffffffffffffffffffffffffffffff169050919050565b60025481565b60008060009054906101000a900473ffffffffffffffffffffffffffffffffffffffff1673ffffffffffffffffffffffffffffffffffffffff163373ffffffffffffffffffffffffffffffffffffffff16141515610fd157600080fd5b6002549050816002819055507f92ceb96513e6ff880013131bf68a11fa2ada07941a6b36db443ccb29b2675c6681600254604051808381526020018281526020019250505060405180910390a15050565b6000809054906101000a900473ffffffffffffffffffffffffffffffffffffffff1673ffffffffffffffffffffffffffffffffffffffff163373ffffffffffffffffffffffffffffffffffffffff1614151561107d57600080fd5b600073ffffffffffffffffffffffffffffffffffffffff168173ffffffffffffffffffffffffffffffffffffffff16141515156110b957600080fd5b6000809054906101000a900473ffffffffffffffffffffffffffffffffffffffff1673ffffffffffffffffffffffffffffffffffffffff168173ffffffffffffffffffffffffffffffffffffffff161415151561111557600080fd5b8073ffffffffffffffffffffffffffffffffffffffff166000809054906101000a900473ffffffffffffffffffffffffffffffffffffffff1673ffffffffffffffffffffffffffffffffffffffff167f241b06b228f3a02025066c5e13bc2bc49f860b30e902f2fcfba6b409256ba74f60405160405180910390a3806000806101000a81548173ffffffffffffffffffffffffffffffffffffffff021916908373ffffffffffffffffffffffffffffffffffffffff16021790555050565b60008061271083101580156111eb5750620f42408311155b15156111f657600080fd5b6111fe610bc5565b9050620f424061120e8285610ced565b1115915050919050565b600080825114159050919050565b6000809054906101000a900473ffffffffffffffffffffffffffffffffffffffff1681565b61271081565b60066020528060005260406000206000915090508060000154908060010160009054906101000a900460ff16905082565b813073ffffffffffffffffffffffffffffffffffffffff168173ffffffffffffffffffffffffffffffffffffffff16141515156112be57600080fd5b8260008173ffffffffffffffffffffffffffffffffffffffff16141515156112e557600080fd5b826000811115156112f557600080fd5b6000809054906101000a900473ffffffffffffffffffffffffffffffffffffffff1673ffffffffffffffffffffffffffffffffffffffff163373ffffffffffffffffffffffffffffffffffffffff1614151561135057600080fd5b600660008673ffffffffffffffffffffffffffffffffffffffff1673ffffffffffffffffffffffffffffffffffffffff16815260200190815260200160002060010160009054906101000a900460ff1615156113a857fe5b6113b1846111d3565b15156113bc57600080fd5b83600660008773ffffffffffffffffffffffffffffffffffffffff1673ffffffffffffffffffffffffffffffffffffffff168152602001908152602001600020600001819055508473ffffffffffffffffffffffffffffffffffffffff167f9c0dadb72508ad4969779d5c10da273b18c6f3a16f71c5744aaf860c56a925d9856040518082815260200191505060405180910390a25050505050565b6000600660008373ffffffffffffffffffffffffffffffffffffffff1673ffffffffffffffffffffffffffffffffffffffff168152602001908152602001600020600001549050919050565b600080828402905060008414806114c557508284828115156114c257fe5b04145b15156114cd57fe5b80915050929150505600a165627a7a72305820776f8534851e9b25b40f5540d9f18d4941f5a4cbc6def4984ff05f28360937290029a165627a7a72305820c0eb8bc9dc06e35b6d4f0a6bef13aafc67729a5c780f83151a8584c06a7ffd880029",
  "source": "/*\n\tCopyright 2018 Open Store Initiative\n\n\tLicensed under the Apache License, Version 2.0 (the \"License\");\n\tyou may not use this file except in compliance with the License.\n\tYou may obtain a copy of the License at\n\n\t\t\thttp://www.apache.org/licenses/LICENSE-2.0\n\n\tUnless required by applicable law or agreed to in writing, software\n\tdistributed under the License is distributed on an \"AS IS\" BASIS,\n\tWITHOUT WARRANTIES OR CONDITIONS OF ANY KIND, either express or implied.\n\tSee the License for the specific language governing permissions and\n\tlimitations under the License.\n*/\npragma solidity ^0.4.21;\n\nimport \"./AssetContract.sol\";\nimport \"./PaymentContract.sol\";\n\ncontract AssetRegistry {\n\n\tPaymentContract public paymentContract;\n\tmapping(address => address[]) public assetsPerOnwer;\n\n\tevent AssetDeployedEvent(address indexed _owner, address indexed _asset);\n\n\tfunction AssetRegistry(PaymentContract _paymentContract) public {\n\t\tpaymentContract = _paymentContract;\n\t}\n\n\tfunction deployAssetContract(string _assetId, uint256 _price, address[] _authors) public returns(address) {\n\t\tAssetContract asset = new AssetContract(_assetId, _price, _authors, msg.sender, paymentContract);\n\t\tassetsPerOnwer[msg.sender].push(asset);\n\t\temit AssetDeployedEvent(msg.sender, asset);\n\t\treturn asset;\n\t}\n\n\tfunction getAssetByOwner(address _assetOwner) public view returns(address[]) {\n\t\treturn assetsPerOnwer[_assetOwner];\n\t}\n\n}",
  "sourcePath": "D:\\Workspace\\vscode\\open-book\\contracts\\AssetRegistry.sol",
  "compiler": {
    "name": "solc",
    "version": "0.4.23+commit.124ca40d.Emscripten.clang"
  },
  "schemaVersion": "2.0.0",
  "updatedAt": "2018-04-22T11:24:09.360Z"
}