{
  "contractName": "AssetRegistry",
  "abi": [
    {
      "constant": true,
      "inputs": [
        {
          "name": "",
          "type": "address"
        },
        {
          "name": "",
          "type": "uint256"
        }
      ],
      "name": "assetsPerOnwer",
      "outputs": [
        {
          "name": "",
          "type": "address"
        }
      ],
      "payable": false,
      "stateMutability": "view",
      "type": "function"
    },
    {
      "inputs": [],
      "payable": false,
      "stateMutability": "nonpayable",
      "type": "constructor"
    },
    {
      "anonymous": false,
      "inputs": [
        {
          "indexed": true,
          "name": "_owner",
          "type": "address"
        },
        {
          "indexed": true,
          "name": "_asset",
          "type": "address"
        }
      ],
      "name": "AssetDeployedEvent",
      "type": "event"
    },
    {
      "constant": false,
      "inputs": [
        {
          "name": "_assetId",
          "type": "string"
        },
        {
          "name": "_price",
          "type": "uint256"
        },
        {
          "name": "_authors",
          "type": "address[]"
        }
      ],
      "name": "deployAssetContract",
      "outputs": [
        {
          "name": "",
          "type": "address"
        }
      ],
      "payable": false,
      "stateMutability": "nonpayable",
      "type": "function"
    },
    {
      "constant": true,
      "inputs": [
        {
          "name": "_assetOwner",
          "type": "address"
        }
      ],
      "name": "getAssetByOwner",
      "outputs": [
        {
          "name": "",
          "type": "address[]"
        }
      ],
      "payable": false,
      "stateMutability": "view",
      "type": "function"
    }
  ],
  "bytecode": "0x6060604052341561000f57600080fd5b6119538061001e6000396000f300606060405260043610610057576000357c0100000000000000000000000000000000000000000000000000000000900463ffffffff1680630a4e4fee1461005c57806365e092ae14610142578063c11ca470146101d0575b600080fd5b341561006757600080fd5b610100600480803590602001908201803590602001908080601f0160208091040260200160405190810160405280939291908181526020018383808284378201915050505050509190803590602001909190803590602001908201803590602001908080602002602001604051908101604052809392919081815260200183836020028082843782019150505050505091905050610252565b604051808273ffffffffffffffffffffffffffffffffffffffff1673ffffffffffffffffffffffffffffffffffffffff16815260200191505060405180910390f35b341561014d57600080fd5b610179600480803573ffffffffffffffffffffffffffffffffffffffff1690602001909190505061046e565b6040518080602001828103825283818151815260200191508051906020019060200280838360005b838110156101bc5780820151818401526020810190506101a1565b505050509050019250505060405180910390f35b34156101db57600080fd5b610210600480803573ffffffffffffffffffffffffffffffffffffffff16906020019091908035906020019091905050610540565b604051808273ffffffffffffffffffffffffffffffffffffffff1673ffffffffffffffffffffffffffffffffffffffff16815260200191505060405180910390f35b6000808484843361026161058e565b8080602001858152602001806020018473ffffffffffffffffffffffffffffffffffffffff1673ffffffffffffffffffffffffffffffffffffffff168152602001838103835287818151815260200191508051906020019080838360005b838110156102da5780820151818401526020810190506102bf565b50505050905090810190601f1680156103075780820380516001836020036101000a031916815260200191505b50838103825285818151815260200191508051906020019060200280838360005b83811015610343578082015181840152602081019050610328565b505050509050019650505050505050604051809103906000f080151561036857600080fd5b90506000803373ffffffffffffffffffffffffffffffffffffffff1673ffffffffffffffffffffffffffffffffffffffff16815260200190815260200160002080548060010182816103ba919061059e565b9160005260206000209001600083909190916101000a81548173ffffffffffffffffffffffffffffffffffffffff021916908373ffffffffffffffffffffffffffffffffffffffff160217905550508073ffffffffffffffffffffffffffffffffffffffff163373ffffffffffffffffffffffffffffffffffffffff167f752eba6d03a402f2abd8df765d33adfc547ab2aba0ae4ddfe010c4e5ec88f48060405160405180910390a3809150509392505050565b6104766105ca565b6000808373ffffffffffffffffffffffffffffffffffffffff1673ffffffffffffffffffffffffffffffffffffffff16815260200190815260200160002080548060200260200160405190810160405280929190818152602001828054801561053457602002820191906000526020600020905b8160009054906101000a900473ffffffffffffffffffffffffffffffffffffffff1673ffffffffffffffffffffffffffffffffffffffff16815260200190600101908083116104ea575b50505050509050919050565b60006020528160005260406000208181548110151561055b57fe5b90600052602060002090016000915091509054906101000a900473ffffffffffffffffffffffffffffffffffffffff1681565b6040516113248061060483390190565b8154818355818115116105c5578183600052602060002091820191016105c491906105de565b5b505050565b602060405190810160405280600081525090565b61060091905b808211156105fc5760008160009055506001016105e4565b5090565b905600606060405234156200001057600080fd5b60405162001324380380620013248339810160405280805182019190602001805190602001909190805182019190602001805190602001909190505060006200006d85620001d06401000000000262000d05176401000000009004565b15156200007957600080fd5b600083511115156200008a57600080fd5b816000806101000a81548173ffffffffffffffffffffffffffffffffffffffff021916908373ffffffffffffffffffffffffffffffffffffffff1602179055508460019080519060200190620000e2929190620001de565b508260049080519060200190620000fb92919062000265565b50836002819055506000600381905550600090505b8251811015620001c557604080519081016040528060008152602001600115158152506005600085848151811015156200014657fe5b9060200190602002015173ffffffffffffffffffffffffffffffffffffffff1673ffffffffffffffffffffffffffffffffffffffff1681526020019081526020016000206000820151816000015560208201518160010160006101000a81548160ff021916908315150217905550905050808060010191505062000110565b505050505062000362565b600080825114159050919050565b828054600181600116156101000203166002900490600052602060002090601f016020900481019282601f106200022157805160ff191683800117855562000252565b8280016001018555821562000252579182015b828111156200025157825182559160200191906001019062000234565b5b509050620002619190620002f4565b5090565b828054828255906000526020600020908101928215620002e1579160200282015b82811115620002e05782518260006101000a81548173ffffffffffffffffffffffffffffffffffffffff021916908373ffffffffffffffffffffffffffffffffffffffff1602179055509160200191906001019062000286565b5b509050620002f091906200031c565b5090565b6200031991905b8082111562000315576000816000905550600101620002fb565b5090565b90565b6200035f91905b808211156200035b57600081816101000a81549073ffffffffffffffffffffffffffffffffffffffff02191690555060010162000323565b5090565b90565b610fb280620003726000396000f3006060604052600436106100db576000357c0100000000000000000000000000000000000000000000000000000000900463ffffffff16806339f9c82c146102b65780633db804da146102df57806344de240a146103425780636814800b146103d057806375f96cf5146104215780637fc622f41461046157806397a993aa146104cb578063a035b1fe1461051c578063a2b40d1914610545578063a843c51f14610568578063aba20eae146105a1578063afabd49d146105dc578063b387ef9214610651578063bd183323146106a6578063f3e92f60146106fe575b60008060008060025434101515156100f257600080fd5b620f42406100fe610740565b14151561010a57600080fd5b600093505b6004805490508410156101f75760048481548110151561012b57fe5b906000526020600020900160009054906101000a900473ffffffffffffffffffffffffffffffffffffffff169250600560008473ffffffffffffffffffffffffffffffffffffffff1673ffffffffffffffffffffffffffffffffffffffff16815260200190815260200160002091506101a83483600001546107fd565b90508273ffffffffffffffffffffffffffffffffffffffff166108fc829081150290604051600060405180830381858888f1935050505015156101ea57600080fd5b838060010194505061010f565b6102046003546001610850565b6003819055506001600660003373ffffffffffffffffffffffffffffffffffffffff1673ffffffffffffffffffffffffffffffffffffffff16815260200190815260200160002060006101000a81548160ff0219169083151502179055503373ffffffffffffffffffffffffffffffffffffffff167ff7130aabb9c9cca18a579bcff1de84054de1ca07680f60eae1510bae7788f819346040518082815260200191505060405180910390a250505050005b34156102c157600080fd5b6102c961086e565b6040518082815260200191505060405180910390f35b34156102ea57600080fd5b6103006004808035906020019091905050610874565b604051808273ffffffffffffffffffffffffffffffffffffffff1673ffffffffffffffffffffffffffffffffffffffff16815260200191505060405180910390f35b341561034d57600080fd5b6103556108b3565b6040518080602001828103825283818151815260200191508051906020019080838360005b8381101561039557808201518184015260208101905061037a565b50505050905090810190601f1680156103c25780820380516001836020036101000a031916815260200191505b509250505060405180910390f35b34156103db57600080fd5b610407600480803573ffffffffffffffffffffffffffffffffffffffff16906020019091905050610951565b604051808215151515815260200191505060405180910390f35b341561042c57600080fd5b61044b60048080359060200190919080359060200190919050506107fd565b6040518082815260200191505060405180910390f35b341561046c57600080fd5b6104746109a7565b6040518080602001828103825283818151815260200191508051906020019060200280838360005b838110156104b757808201518184015260208101905061049c565b505050509050019250505060405180910390f35b34156104d657600080fd5b610502600480803573ffffffffffffffffffffffffffffffffffffffff16906020019091905050610a3b565b604051808215151515815260200191505060405180910390f35b341561052757600080fd5b61052f610a5b565b6040518082815260200191505060405180910390f35b341561055057600080fd5b6105666004808035906020019091905050610a61565b005b341561057357600080fd5b61059f600480803573ffffffffffffffffffffffffffffffffffffffff16906020019091905050610b0f565b005b34156105ac57600080fd5b6105c26004808035906020019091905050610cc0565b604051808215151515815260200191505060405180910390f35b34156105e757600080fd5b610637600480803590602001908201803590602001908080601f01602080910402602001604051908101604052809392919081815260200183838082843782019150505050505091905050610d05565b604051808215151515815260200191505060405180910390f35b341561065c57600080fd5b610664610d13565b604051808273ffffffffffffffffffffffffffffffffffffffff1673ffffffffffffffffffffffffffffffffffffffff16815260200191505060405180910390f35b34156106b157600080fd5b6106dd600480803573ffffffffffffffffffffffffffffffffffffffff16906020019091905050610d38565b60405180838152602001821515151581526020019250505060405180910390f35b341561070957600080fd5b61073e600480803573ffffffffffffffffffffffffffffffffffffffff16906020019091908035906020019091905050610d69565b005b60008060008060009250600091505b6004805490508210156107f4576005600060048481548110151561076f57fe5b906000526020600020900160009054906101000a900473ffffffffffffffffffffffffffffffffffffffff1673ffffffffffffffffffffffffffffffffffffffff1673ffffffffffffffffffffffffffffffffffffffff16815260200190815260200160002090506107e5838260000154610850565b9250818060010192505061074f565b82935050505090565b6000620186a08210806108225750620186a082101580156108215750620f42408211155b5b1561084657620f42406108358484610f3f565b81151561083e57fe5b04905061084a565b8290505b92915050565b600080828401905083811015151561086457fe5b8091505092915050565b60035481565b60048181548110151561088357fe5b90600052602060002090016000915054906101000a900473ffffffffffffffffffffffffffffffffffffffff1681565b60018054600181600116156101000203166002900480601f0160208091040260200160405190810160405280929190818152602001828054600181600116156101000203166002900480156109495780601f1061091e57610100808354040283529160200191610949565b820191906000526020600020905b81548152906001019060200180831161092c57829003601f168201915b505050505081565b6000600660008373ffffffffffffffffffffffffffffffffffffffff1673ffffffffffffffffffffffffffffffffffffffff16815260200190815260200160002060009054906101000a900460ff169050919050565b6109af610f72565b6004805480602002602001604051908101604052809291908181526020018280548015610a3157602002820191906000526020600020905b8160009054906101000a900473ffffffffffffffffffffffffffffffffffffffff1673ffffffffffffffffffffffffffffffffffffffff16815260200190600101908083116109e7575b5050505050905090565b60066020528060005260406000206000915054906101000a900460ff1681565b60025481565b60008060009054906101000a900473ffffffffffffffffffffffffffffffffffffffff1673ffffffffffffffffffffffffffffffffffffffff163373ffffffffffffffffffffffffffffffffffffffff16141515610abe57600080fd5b6002549050816002819055507f92ceb96513e6ff880013131bf68a11fa2ada07941a6b36db443ccb29b2675c6681600254604051808381526020018281526020019250505060405180910390a15050565b6000809054906101000a900473ffffffffffffffffffffffffffffffffffffffff1673ffffffffffffffffffffffffffffffffffffffff163373ffffffffffffffffffffffffffffffffffffffff16141515610b6a57600080fd5b600073ffffffffffffffffffffffffffffffffffffffff168173ffffffffffffffffffffffffffffffffffffffff1614151515610ba657600080fd5b6000809054906101000a900473ffffffffffffffffffffffffffffffffffffffff1673ffffffffffffffffffffffffffffffffffffffff168173ffffffffffffffffffffffffffffffffffffffff1614151515610c0257600080fd5b8073ffffffffffffffffffffffffffffffffffffffff166000809054906101000a900473ffffffffffffffffffffffffffffffffffffffff1673ffffffffffffffffffffffffffffffffffffffff167f241b06b228f3a02025066c5e13bc2bc49f860b30e902f2fcfba6b409256ba74f60405160405180910390a3806000806101000a81548173ffffffffffffffffffffffffffffffffffffffff021916908373ffffffffffffffffffffffffffffffffffffffff16021790555050565b6000806127108310158015610cd85750620f42408311155b1515610ce357600080fd5b610ceb610740565b9050620f4240610cfb8285610850565b1115915050919050565b600080825114159050919050565b6000809054906101000a900473ffffffffffffffffffffffffffffffffffffffff1681565b60056020528060005260406000206000915090508060000154908060010160009054906101000a900460ff16905082565b813073ffffffffffffffffffffffffffffffffffffffff168173ffffffffffffffffffffffffffffffffffffffff1614151515610da557600080fd5b8260008173ffffffffffffffffffffffffffffffffffffffff1614151515610dcc57600080fd5b82600081111515610ddc57600080fd5b6000809054906101000a900473ffffffffffffffffffffffffffffffffffffffff1673ffffffffffffffffffffffffffffffffffffffff163373ffffffffffffffffffffffffffffffffffffffff16141515610e3757600080fd5b600560008673ffffffffffffffffffffffffffffffffffffffff1673ffffffffffffffffffffffffffffffffffffffff16815260200190815260200160002060010160009054906101000a900460ff161515610e8f57fe5b610e9884610cc0565b1515610ea357600080fd5b83600560008773ffffffffffffffffffffffffffffffffffffffff1673ffffffffffffffffffffffffffffffffffffffff168152602001908152602001600020600001819055508473ffffffffffffffffffffffffffffffffffffffff167f9c0dadb72508ad4969779d5c10da273b18c6f3a16f71c5744aaf860c56a925d9856040518082815260200191505060405180910390a25050505050565b60008082840290506000841480610f605750828482811515610f5d57fe5b04145b1515610f6857fe5b8091505092915050565b6020604051908101604052806000815250905600a165627a7a72305820dbad9a293769b832d0a85f6d09fa9c7daef34fae4257fb68be9264d21fa1b8400029a165627a7a72305820f8e345bb3fc1c1538003bb46c196c2d5d93c40fec71f5182d2be6049d7fe525c0029",
  "source": "/*\n\tCopyright 2018 Open Store Initiative\n\n\tLicensed under the Apache License, Version 2.0 (the \"License\");\n\tyou may not use this file except in compliance with the License.\n\tYou may obtain a copy of the License at\n\n\t\t\thttp://www.apache.org/licenses/LICENSE-2.0\n\n\tUnless required by applicable law or agreed to in writing, software\n\tdistributed under the License is distributed on an \"AS IS\" BASIS,\n\tWITHOUT WARRANTIES OR CONDITIONS OF ANY KIND, either express or implied.\n\tSee the License for the specific language governing permissions and\n\tlimitations under the License.\n*/\npragma solidity ^0.4.11;\n\nimport \"./AssetContract.sol\";\n\ncontract AssetRegistry {\n\n\tmapping(address => address[]) public assetsPerOnwer;\n\n\tevent AssetDeployedEvent(address indexed _owner, address indexed _asset);\n\n\tfunction AssetRegistry() public {}\n\n\tfunction deployAssetContract(string _assetId, uint256 _price, address[] _authors) public returns(address) {\n\t\tAssetContract asset = new AssetContract(_assetId, _price, _authors, msg.sender);\n\t\tassetsPerOnwer[msg.sender].push(asset);\n\t\tAssetDeployedEvent(msg.sender, asset);\n\t\treturn asset;\n\t}\n\n\tfunction getAssetByOwner(address _assetOwner) public view returns(address[]) {\n\t\treturn assetsPerOnwer[_assetOwner];\n\t}\n\n}",
  "sourcePath": "/mnt/d/Workspace/vscode/open-book/contracts/AssetRegistry.sol",
  "compiler": {
    "name": "solc",
    "version": "0.4.21+commit.dfe3193c.Emscripten.clang"
  },
  "schemaVersion": "2.0.0",
  "updatedAt": "2018-04-19T19:23:50.826Z"
}