{
  "contractName": "BookContract",
  "abi": [
    {
      "constant": true,
      "inputs": [],
      "name": "soldCount",
      "outputs": [
        {
          "name": "",
          "type": "uint256"
        }
      ],
      "payable": false,
      "stateMutability": "view",
      "type": "function"
    },
    {
      "constant": true,
      "inputs": [
        {
          "name": "",
          "type": "uint256"
        }
      ],
      "name": "authors",
      "outputs": [
        {
          "name": "",
          "type": "address"
        }
      ],
      "payable": false,
      "stateMutability": "view",
      "type": "function"
    },
    {
      "constant": true,
      "inputs": [],
      "name": "price",
      "outputs": [
        {
          "name": "",
          "type": "uint256"
        }
      ],
      "payable": false,
      "stateMutability": "view",
      "type": "function"
    },
    {
      "constant": true,
      "inputs": [],
      "name": "id",
      "outputs": [
        {
          "name": "",
          "type": "string"
        }
      ],
      "payable": false,
      "stateMutability": "view",
      "type": "function"
    },
    {
      "inputs": [
        {
          "name": "_id",
          "type": "string"
        },
        {
          "name": "_price",
          "type": "uint256"
        },
        {
          "name": "_authors",
          "type": "address[]"
        }
      ],
      "payable": false,
      "stateMutability": "nonpayable",
      "type": "constructor"
    },
    {
      "payable": true,
      "stateMutability": "payable",
      "type": "fallback"
    },
    {
      "anonymous": false,
      "inputs": [
        {
          "indexed": true,
          "name": "_sender",
          "type": "address"
        },
        {
          "indexed": false,
          "name": "_value",
          "type": "uint256"
        }
      ],
      "name": "PaymentEvent",
      "type": "event"
    },
    {
      "anonymous": false,
      "inputs": [
        {
          "indexed": true,
          "name": "_author",
          "type": "address"
        },
        {
          "indexed": false,
          "name": "_rate",
          "type": "uint256"
        }
      ],
      "name": "RevenueChangedEvent",
      "type": "event"
    },
    {
      "constant": false,
      "inputs": [
        {
          "name": "_author",
          "type": "address"
        },
        {
          "name": "_rate",
          "type": "uint256"
        }
      ],
      "name": "setRevenueRate",
      "outputs": [],
      "payable": false,
      "stateMutability": "nonpayable",
      "type": "function"
    }
  ],
  "bytecode": "0x6060604052341561000f57600080fd5b60405161079f38038061079f833981016040528080518201919060200180519060200190919080518201919050508260009080519060200190610053929190610082565b50806003908051906020019061006a929190610102565b508160018190555060006002819055505050506101f4565b828054600181600116156101000203166002900490600052602060002090601f016020900481019282601f106100c357805160ff19168380011785556100f1565b828001600101855582156100f1579182015b828111156100f05782518255916020019190600101906100d5565b5b5090506100fe919061018c565b5090565b82805482825590600052602060002090810192821561017b579160200282015b8281111561017a5782518260006101000a81548173ffffffffffffffffffffffffffffffffffffffff021916908373ffffffffffffffffffffffffffffffffffffffff16021790555091602001919060010190610122565b5b50905061018891906101b1565b5090565b6101ae91905b808211156101aa576000816000905550600101610192565b5090565b90565b6101f191905b808211156101ed57600081816101000a81549073ffffffffffffffffffffffffffffffffffffffff0219169055506001016101b7565b5090565b90565b61059c806102036000396000f30060606040526004361061006d576000357c0100000000000000000000000000000000000000000000000000000000900463ffffffff16806339f9c82c146101d85780633db804da14610201578063a035b1fe14610264578063af640d0f1461028d578063f3e92f601461031b575b6000806000600154341015151561008357600080fd5b600092505b6003805490508360ff1610156101725760038360ff168154811015156100aa57fe5b906000526020600020900160009054906101000a900473ffffffffffffffffffffffffffffffffffffffff169150600460008373ffffffffffffffffffffffffffffffffffffffff1673ffffffffffffffffffffffffffffffffffffffff168152602001908152602001600020543481151561012257fe5b0490508173ffffffffffffffffffffffffffffffffffffffff166108fc829081150290604051600060405180830381858888f19350505050151561016557600080fd5b8280600101935050610088565b61017f600254600161035d565b6002819055503373ffffffffffffffffffffffffffffffffffffffff167ff7130aabb9c9cca18a579bcff1de84054de1ca07680f60eae1510bae7788f819346040518082815260200191505060405180910390a2505050005b34156101e357600080fd5b6101eb61037b565b6040518082815260200191505060405180910390f35b341561020c57600080fd5b6102226004808035906020019091905050610381565b604051808273ffffffffffffffffffffffffffffffffffffffff1673ffffffffffffffffffffffffffffffffffffffff16815260200191505060405180910390f35b341561026f57600080fd5b6102776103c0565b6040518082815260200191505060405180910390f35b341561029857600080fd5b6102a06103c6565b6040518080602001828103825283818151815260200191508051906020019080838360005b838110156102e05780820151818401526020810190506102c5565b50505050905090810190601f16801561030d5780820380516001836020036101000a031916815260200191505b509250505060405180910390f35b341561032657600080fd5b61035b600480803573ffffffffffffffffffffffffffffffffffffffff16906020019091908035906020019091905050610464565b005b600080828401905083811015151561037157fe5b8091505092915050565b60025481565b60038181548110151561039057fe5b90600052602060002090016000915054906101000a900473ffffffffffffffffffffffffffffffffffffffff1681565b60015481565b60008054600181600116156101000203166002900480601f01602080910402602001604051908101604052809291908181526020018280546001816001161561010002031660029004801561045c5780601f106104315761010080835404028352916020019161045c565b820191906000526020600020905b81548152906001019060200180831161043f57829003601f168201915b505050505081565b813073ffffffffffffffffffffffffffffffffffffffff168173ffffffffffffffffffffffffffffffffffffffff16141515156104a057600080fd5b8260008173ffffffffffffffffffffffffffffffffffffffff16141515156104c757600080fd5b826000811115156104d757600080fd5b83600460008773ffffffffffffffffffffffffffffffffffffffff1673ffffffffffffffffffffffffffffffffffffffff168152602001908152602001600020819055508473ffffffffffffffffffffffffffffffffffffffff167f7af57dc6bb658b3e954e4124482110ef47551547f379b18d71244c1aba62a561856040518082815260200191505060405180910390a250505050505600a165627a7a7230582023e6e8b7e8a148cbcb22783d01797fa368d58e6dbd92216ac409dcc7730784b30029",
  "source": "pragma solidity ^0.4.11;\n\nimport \"./util/Util.sol\";\n\ncontract BookContract is Util {\n\n    string public id;\n    uint256 public price;\n    uint256 public soldCount;\n    address[] public authors;\n    mapping(address => uint256) revenueRates;\n\n    event PaymentEvent(address indexed _sender, uint256 _value);\n    event RevenueChangedEvent(address indexed _author, uint256 _rate);\n\n    function BookContract(string _id, uint256 _price, address[] _authors) public {\n        id = _id;\n        authors = _authors;\n        price = _price;\n        soldCount = 0;\n    }\n\n    function () public payable {\n        require(msg.value >= price);\n\n        for (uint8 i = 0; i < authors.length; i++) {\n            address author = authors[i];\n            uint256 revenue = msg.value / revenueRates[author];\n            author.transfer(revenue);\n        }\n\n        soldCount = safeAdd(soldCount, 1);\n        PaymentEvent(msg.sender, msg.value);\n    }\n\n    // connector weight, represented in ppm (1ppm = 0.0001%), 1-1000000\n    function setRevenueRate(address _author, uint256 _rate) public \n        notThis(_author)\n        validAddress(_author)\n        greaterThanZero(_rate)\n    {\n        revenueRates[_author] = _rate;\n        RevenueChangedEvent(_author, _rate);\n    }\n\n}",
  "sourcePath": "/home/taras/Workspace/vscode/open-book/contracts/BookContract.sol",
  "compiler": {
    "name": "solc",
    "version": "0.4.19+commit.c4cbbb05.Emscripten.clang"
  },
  "schemaVersion": "2.0.0",
  "updatedAt": "2018-03-09T10:13:38.812Z"
}