{
  "contractName": "BookContract",
  "abi": [
    {
      "constant": true,
      "inputs": [],
      "name": "soldCount",
      "outputs": [
        {
          "name": "",
          "type": "uint256"
        }
      ],
      "payable": false,
      "stateMutability": "view",
      "type": "function"
    },
    {
      "constant": true,
      "inputs": [
        {
          "name": "",
          "type": "uint256"
        }
      ],
      "name": "authors",
      "outputs": [
        {
          "name": "",
          "type": "address"
        }
      ],
      "payable": false,
      "stateMutability": "view",
      "type": "function"
    },
    {
      "constant": true,
      "inputs": [],
      "name": "price",
      "outputs": [
        {
          "name": "",
          "type": "uint256"
        }
      ],
      "payable": false,
      "stateMutability": "view",
      "type": "function"
    },
    {
      "constant": true,
      "inputs": [],
      "name": "id",
      "outputs": [
        {
          "name": "",
          "type": "string"
        }
      ],
      "payable": false,
      "stateMutability": "view",
      "type": "function"
    },
    {
      "inputs": [
        {
          "name": "_id",
          "type": "string"
        },
        {
          "name": "_price",
          "type": "uint256"
        },
        {
          "name": "_authors",
          "type": "address[]"
        }
      ],
      "payable": false,
      "stateMutability": "nonpayable",
      "type": "constructor"
    },
    {
      "payable": true,
      "stateMutability": "payable",
      "type": "fallback"
    },
    {
      "anonymous": false,
      "inputs": [
        {
          "indexed": true,
          "name": "_sender",
          "type": "address"
        },
        {
          "indexed": false,
          "name": "_value",
          "type": "uint256"
        }
      ],
      "name": "PaymentEvent",
      "type": "event"
    },
    {
      "anonymous": false,
      "inputs": [
        {
          "indexed": true,
          "name": "_author",
          "type": "address"
        },
        {
          "indexed": false,
          "name": "_rate",
          "type": "uint256"
        }
      ],
      "name": "RevenueChangedEvent",
      "type": "event"
    },
    {
      "constant": false,
      "inputs": [
        {
          "name": "_author",
          "type": "address"
        },
        {
          "name": "_rate",
          "type": "uint256"
        }
      ],
      "name": "setRevenueRate",
      "outputs": [],
      "payable": false,
      "stateMutability": "nonpayable",
      "type": "function"
    }
  ],
  "bytecode": "0x6060604052341561000f57600080fd5b604051610843380380610843833981016040528080518201919060200180519060200190919080518201919050508260009080519060200190610053929190610082565b50806003908051906020019061006a929190610102565b508160018190555060006002819055505050506101f4565b828054600181600116156101000203166002900490600052602060002090601f016020900481019282601f106100c357805160ff19168380011785556100f1565b828001600101855582156100f1579182015b828111156100f05782518255916020019190600101906100d5565b5b5090506100fe919061018c565b5090565b82805482825590600052602060002090810192821561017b579160200282015b8281111561017a5782518260006101000a81548173ffffffffffffffffffffffffffffffffffffffff021916908373ffffffffffffffffffffffffffffffffffffffff16021790555091602001919060010190610122565b5b50905061018891906101b1565b5090565b6101ae91905b808211156101aa576000816000905550600101610192565b5090565b90565b6101f191905b808211156101ed57600081816101000a81549073ffffffffffffffffffffffffffffffffffffffff0219169055506001016101b7565b5090565b90565b610640806102036000396000f30060606040526004361061006d576000357c0100000000000000000000000000000000000000000000000000000000900463ffffffff16806339f9c82c146101d65780633db804da146101ff578063a035b1fe14610262578063af640d0f1461028b578063f3e92f6014610319575b6000806000600154341015151561008357600080fd5b600092505b6003805490508360ff1610156101705760038360ff168154811015156100aa57fe5b906000526020600020900160009054906101000a900473ffffffffffffffffffffffffffffffffffffffff16915061012134600460008573ffffffffffffffffffffffffffffffffffffffff1673ffffffffffffffffffffffffffffffffffffffff1681526020019081526020016000205461035b565b90508173ffffffffffffffffffffffffffffffffffffffff166108fc829081150290604051600060405180830381858888f19350505050151561016357600080fd5b8280600101935050610088565b61017d60025460016103ce565b6002819055503373ffffffffffffffffffffffffffffffffffffffff167ff7130aabb9c9cca18a579bcff1de84054de1ca07680f60eae1510bae7788f819346040518082815260200191505060405180910390a2505050005b34156101e157600080fd5b6101e96103ec565b6040518082815260200191505060405180910390f35b341561020a57600080fd5b61022060048080359060200190919050506103f2565b604051808273ffffffffffffffffffffffffffffffffffffffff1673ffffffffffffffffffffffffffffffffffffffff16815260200191505060405180910390f35b341561026d57600080fd5b610275610431565b6040518082815260200191505060405180910390f35b341561029657600080fd5b61029e610437565b6040518080602001828103825283818151815260200191508051906020019080838360005b838110156102de5780820151818401526020810190506102c3565b50505050905090810190601f16801561030b5780820380516001836020036101000a031916815260200191505b509250505060405180910390f35b341561032457600080fd5b610359600480803573ffffffffffffffffffffffffffffffffffffffff169060200190919080359060200190919050506104d5565b005b600061271082101580156103725750620f42408211155b151561037d57600080fd5b620186a08210806103a05750620186a0821015801561039f5750620f42408211155b5b156103c457620f42406103b384846105e1565b8115156103bc57fe5b0490506103c8565b8290505b92915050565b60008082840190508381101515156103e257fe5b8091505092915050565b60025481565b60038181548110151561040157fe5b90600052602060002090016000915054906101000a900473ffffffffffffffffffffffffffffffffffffffff1681565b60015481565b60008054600181600116156101000203166002900480601f0160208091040260200160405190810160405280929190818152602001828054600181600116156101000203166002900480156104cd5780601f106104a2576101008083540402835291602001916104cd565b820191906000526020600020905b8154815290600101906020018083116104b057829003601f168201915b505050505081565b813073ffffffffffffffffffffffffffffffffffffffff168173ffffffffffffffffffffffffffffffffffffffff161415151561051157600080fd5b8260008173ffffffffffffffffffffffffffffffffffffffff161415151561053857600080fd5b8260008111151561054857600080fd5b83600460008773ffffffffffffffffffffffffffffffffffffffff1673ffffffffffffffffffffffffffffffffffffffff168152602001908152602001600020819055508473ffffffffffffffffffffffffffffffffffffffff167f7af57dc6bb658b3e954e4124482110ef47551547f379b18d71244c1aba62a561856040518082815260200191505060405180910390a25050505050565b6000808284029050600084148061060257508284828115156105ff57fe5b04145b151561060a57fe5b80915050929150505600a165627a7a7230582017148be6ece307522b5ae3ad0215824829b32b06db9155017fb179cb5bf497940029",
  "source": "pragma solidity ^0.4.11;\n\nimport \"./util/Util.sol\";\n\ncontract BookContract is Util {\n\n    string public id;\n    uint256 public price;\n    uint256 public soldCount;\n    address[] public authors;\n    mapping(address => uint256) revenueRates;\n\n    event PaymentEvent(address indexed _sender, uint256 _value);\n    event RevenueChangedEvent(address indexed _author, uint256 _rate);\n\n    function BookContract(string _id, uint256 _price, address[] _authors) public {\n        id = _id;\n        authors = _authors;\n        price = _price;\n        soldCount = 0;\n    }\n\n    function () public payable {\n        require(msg.value >= price);\n\n        for (uint8 i = 0; i < authors.length; i++) {\n            address author = authors[i];\n            uint256 revenue = super.calculateRevenue(msg.value, revenueRates[author]);\n            author.transfer(revenue);\n        }\n\n        soldCount = safeAdd(soldCount, 1);\n        PaymentEvent(msg.sender, msg.value);\n    }\n\n    // connector weight, represented in ppm (10000 ppm = 1%), 1-1000000\n    function setRevenueRate(address _author, uint256 _rate) public \n        notThis(_author)\n        validAddress(_author)\n        greaterThanZero(_rate)\n    {\n        revenueRates[_author] = _rate;\n        RevenueChangedEvent(_author, _rate);\n    }\n\n}",
  "sourcePath": "/mnt/d/Workspace/vscode/open-book/contracts/BookContract.sol",
  "compiler": {
    "name": "solc",
    "version": "0.4.19+commit.c4cbbb05.Emscripten.clang"
  },
  "schemaVersion": "2.0.0",
  "updatedAt": "2018-03-12T22:57:11.198Z"
}