{
  "contractName": "PaymentContract",
  "abi": [
    {
      "constant": true,
      "inputs": [],
      "name": "platformRevenueAddress",
      "outputs": [
        {
          "name": "",
          "type": "address"
        }
      ],
      "payable": false,
      "stateMutability": "view",
      "type": "function"
    },
    {
      "constant": true,
      "inputs": [],
      "name": "platformFee",
      "outputs": [
        {
          "name": "",
          "type": "uint256"
        }
      ],
      "payable": false,
      "stateMutability": "view",
      "type": "function"
    },
    {
      "constant": true,
      "inputs": [],
      "name": "MAX_REVENUE_RATE",
      "outputs": [
        {
          "name": "",
          "type": "uint256"
        }
      ],
      "payable": false,
      "stateMutability": "view",
      "type": "function"
    },
    {
      "constant": true,
      "inputs": [],
      "name": "TEN_PERCENT_IN_PPM",
      "outputs": [
        {
          "name": "",
          "type": "uint256"
        }
      ],
      "payable": false,
      "stateMutability": "view",
      "type": "function"
    },
    {
      "constant": true,
      "inputs": [
        {
          "name": "_value",
          "type": "uint256"
        },
        {
          "name": "_rate",
          "type": "uint256"
        }
      ],
      "name": "calculateRevenue",
      "outputs": [
        {
          "name": "revenue",
          "type": "uint256"
        }
      ],
      "payable": false,
      "stateMutability": "pure",
      "type": "function"
    },
    {
      "constant": false,
      "inputs": [
        {
          "name": "_newOwner",
          "type": "address"
        }
      ],
      "name": "transferContractOwnership",
      "outputs": [],
      "payable": false,
      "stateMutability": "nonpayable",
      "type": "function"
    },
    {
      "constant": true,
      "inputs": [
        {
          "name": "_str",
          "type": "string"
        }
      ],
      "name": "nonEmpty",
      "outputs": [
        {
          "name": "",
          "type": "bool"
        }
      ],
      "payable": false,
      "stateMutability": "pure",
      "type": "function"
    },
    {
      "constant": true,
      "inputs": [],
      "name": "currentOwner",
      "outputs": [
        {
          "name": "",
          "type": "address"
        }
      ],
      "payable": false,
      "stateMutability": "view",
      "type": "function"
    },
    {
      "constant": true,
      "inputs": [],
      "name": "MIN_REVENUE_RATE",
      "outputs": [
        {
          "name": "",
          "type": "uint256"
        }
      ],
      "payable": false,
      "stateMutability": "view",
      "type": "function"
    },
    {
      "inputs": [
        {
          "name": "_platformFee",
          "type": "uint256"
        },
        {
          "name": "_platformRevenueAddress",
          "type": "address"
        }
      ],
      "payable": false,
      "stateMutability": "nonpayable",
      "type": "constructor"
    },
    {
      "anonymous": false,
      "inputs": [
        {
          "indexed": false,
          "name": "_oldPlatformFee",
          "type": "uint256"
        },
        {
          "indexed": false,
          "name": "_newPlatformFee",
          "type": "uint256"
        }
      ],
      "name": "PlatformFeeChangedEvent",
      "type": "event"
    },
    {
      "anonymous": false,
      "inputs": [
        {
          "indexed": false,
          "name": "_oldAddress",
          "type": "address"
        },
        {
          "indexed": false,
          "name": "_newAddress",
          "type": "address"
        }
      ],
      "name": "PlatformRevenueAddressChangedEvent",
      "type": "event"
    },
    {
      "anonymous": false,
      "inputs": [
        {
          "indexed": true,
          "name": "_oldOwner",
          "type": "address"
        },
        {
          "indexed": true,
          "name": "_newOwner",
          "type": "address"
        }
      ],
      "name": "TransferOwnershipEvent",
      "type": "event"
    },
    {
      "constant": false,
      "inputs": [
        {
          "name": "_platformFee",
          "type": "uint256"
        }
      ],
      "name": "setPlatformFee",
      "outputs": [],
      "payable": false,
      "stateMutability": "nonpayable",
      "type": "function"
    },
    {
      "constant": false,
      "inputs": [
        {
          "name": "_platformRevenueAddress",
          "type": "address"
        }
      ],
      "name": "setPlatformRevenueAddress",
      "outputs": [],
      "payable": false,
      "stateMutability": "nonpayable",
      "type": "function"
    },
    {
      "constant": false,
      "inputs": [
        {
          "name": "authorAddress",
          "type": "address"
        },
        {
          "name": "revenueRate",
          "type": "uint256"
        },
        {
          "name": "value",
          "type": "uint256"
        }
      ],
      "name": "handlePayment",
      "outputs": [],
      "payable": false,
      "stateMutability": "nonpayable",
      "type": "function"
    },
    {
      "constant": true,
      "inputs": [
        {
          "name": "_value",
          "type": "uint256"
        }
      ],
      "name": "calculateFee",
      "outputs": [
        {
          "name": "",
          "type": "uint256"
        }
      ],
      "payable": false,
      "stateMutability": "view",
      "type": "function"
    }
  ],
  "bytecode": "0x608060405234801561001057600080fd5b50604051604080610ba283398101806040528101908080519060200190929190805190602001909291905050508160018190555060008173ffffffffffffffffffffffffffffffffffffffff1614156100a95733600260006101000a81548173ffffffffffffffffffffffffffffffffffffffff021916908373ffffffffffffffffffffffffffffffffffffffff1602179055506100eb565b80600260006101000a81548173ffffffffffffffffffffffffffffffffffffffff021916908373ffffffffffffffffffffffffffffffffffffffff1602179055505b336000806101000a81548173ffffffffffffffffffffffffffffffffffffffff021916908373ffffffffffffffffffffffffffffffffffffffff1602179055505050610a668061013c6000396000f3006080604052600436106100c5576000357c0100000000000000000000000000000000000000000000000000000000900463ffffffff1680630cbc27e2146100ca57806312e8e2c31461012157806324e22b581461014e57806326232a2e146101915780634c1d205f146101bc5780635b529adf146101e757806370c353b61461021257806375f96cf51461026957806399a5d747146102b4578063a843c51f146102f5578063afabd49d14610338578063b387ef92146103b9578063b8d8776314610410575b600080fd5b3480156100d657600080fd5b506100df61043b565b604051808273ffffffffffffffffffffffffffffffffffffffff1673ffffffffffffffffffffffffffffffffffffffff16815260200191505060405180910390f35b34801561012d57600080fd5b5061014c60048036038101908080359060200190929190505050610461565b005b34801561015a57600080fd5b5061018f600480360381019080803573ffffffffffffffffffffffffffffffffffffffff169060200190929190505050610518565b005b34801561019d57600080fd5b506101a6610732565b6040518082815260200191505060405180910390f35b3480156101c857600080fd5b506101d1610738565b6040518082815260200191505060405180910390f35b3480156101f357600080fd5b506101fc61073f565b6040518082815260200191505060405180910390f35b34801561021e57600080fd5b50610267600480360381019080803573ffffffffffffffffffffffffffffffffffffffff1690602001909291908035906020019092919080359060200190929190505050610746565b005b34801561027557600080fd5b5061029e60048036038101908080359060200190929190803590602001909291905050506107a1565b6040518082815260200191505060405180910390f35b3480156102c057600080fd5b506102df600480360381019080803590602001909291905050506107f4565b6040518082815260200191505060405180910390f35b34801561030157600080fd5b50610336600480360381019080803573ffffffffffffffffffffffffffffffffffffffff16906020019092919050505061081d565b005b34801561034457600080fd5b5061039f600480360381019080803590602001908201803590602001908080601f01602080910402602001604051908101604052809392919081815260200183838082843782019150505050505091929192905050506109ce565b604051808215151515815260200191505060405180910390f35b3480156103c557600080fd5b506103ce6109dc565b604051808273ffffffffffffffffffffffffffffffffffffffff1673ffffffffffffffffffffffffffffffffffffffff16815260200191505060405180910390f35b34801561041c57600080fd5b50610425610a01565b6040518082815260200191505060405180910390f35b600260009054906101000a900473ffffffffffffffffffffffffffffffffffffffff1681565b6000809054906101000a900473ffffffffffffffffffffffffffffffffffffffff1673ffffffffffffffffffffffffffffffffffffffff163373ffffffffffffffffffffffffffffffffffffffff161415156104bc57600080fd5b60015481141515156104cd57600080fd5b7f9703f25c19cb34876c9de9e29e45dc9bda15b1b20ebb7b3e63765aa01780737960015482604051808381526020018281526020019250505060405180910390a18060018190555050565b6000809054906101000a900473ffffffffffffffffffffffffffffffffffffffff1673ffffffffffffffffffffffffffffffffffffffff163373ffffffffffffffffffffffffffffffffffffffff1614151561057357600080fd5b8060008173ffffffffffffffffffffffffffffffffffffffff161415151561059a57600080fd5b813073ffffffffffffffffffffffffffffffffffffffff168173ffffffffffffffffffffffffffffffffffffffff16141515156105d657600080fd5b600260009054906101000a900473ffffffffffffffffffffffffffffffffffffffff1673ffffffffffffffffffffffffffffffffffffffff168373ffffffffffffffffffffffffffffffffffffffff161415151561063357600080fd5b7ff51e6bb29cdbba1eb14454704bbc8a9bbc0c4aee3a7ddda013ad12d2a31a004a600260009054906101000a900473ffffffffffffffffffffffffffffffffffffffff1684604051808373ffffffffffffffffffffffffffffffffffffffff1673ffffffffffffffffffffffffffffffffffffffff1681526020018273ffffffffffffffffffffffffffffffffffffffff1673ffffffffffffffffffffffffffffffffffffffff1681526020019250505060405180910390a182600260006101000a81548173ffffffffffffffffffffffffffffffffffffffff021916908373ffffffffffffffffffffffffffffffffffffffff160217905550505050565b60015481565b620f424081565b620186a081565b600061075282846107a1565b90508373ffffffffffffffffffffffffffffffffffffffff166108fc829081150290604051600060405180830381858888f1935050505015801561079a573d6000803e3d6000fd5b5050505050565b6000620186a08210806107c65750620186a082101580156107c55750620f42408211155b5b156107ea57620f42406107d98484610a07565b8115156107e257fe5b0490506107ee565b8290505b92915050565b60008060015414156108095760009050610818565b610815826001546107a1565b90505b919050565b6000809054906101000a900473ffffffffffffffffffffffffffffffffffffffff1673ffffffffffffffffffffffffffffffffffffffff163373ffffffffffffffffffffffffffffffffffffffff1614151561087857600080fd5b600073ffffffffffffffffffffffffffffffffffffffff168173ffffffffffffffffffffffffffffffffffffffff16141515156108b457600080fd5b6000809054906101000a900473ffffffffffffffffffffffffffffffffffffffff1673ffffffffffffffffffffffffffffffffffffffff168173ffffffffffffffffffffffffffffffffffffffff161415151561091057600080fd5b8073ffffffffffffffffffffffffffffffffffffffff166000809054906101000a900473ffffffffffffffffffffffffffffffffffffffff1673ffffffffffffffffffffffffffffffffffffffff167f241b06b228f3a02025066c5e13bc2bc49f860b30e902f2fcfba6b409256ba74f60405160405180910390a3806000806101000a81548173ffffffffffffffffffffffffffffffffffffffff021916908373ffffffffffffffffffffffffffffffffffffffff16021790555050565b600080825114159050919050565b6000809054906101000a900473ffffffffffffffffffffffffffffffffffffffff1681565b61271081565b60008082840290506000841480610a285750828482811515610a2557fe5b04145b1515610a3057fe5b80915050929150505600a165627a7a723058201545da18913f0877e1f4db16f34eabd2fb240559f1b9c1fdb34491050467274a0029",
  "source": "/*\n\tCopyright 2018 Open Store Initiative\n\n\tLicensed under the Apache License, Version 2.0 (the \"License\");\n\tyou may not use this file except in compliance with the License.\n\tYou may obtain a copy of the License at\n\n\t\t\thttp://www.apache.org/licenses/LICENSE-2.0\n\n\tUnless required by applicable law or agreed to in writing, software\n\tdistributed under the License is distributed on an \"AS IS\" BASIS,\n\tWITHOUT WARRANTIES OR CONDITIONS OF ANY KIND, either express or implied.\n\tSee the License for the specific language governing permissions and\n\tlimitations under the License.\n*/\npragma solidity ^0.4.21;\n\nimport \"./util/PaymentUtils.sol\";\n\ncontract PaymentContract is PaymentUtils {\n\n\tuint256 public platformFee;\n\taddress public platformRevenueAddress;\n\n\tevent PlatformFeeChangedEvent(uint256 _oldPlatformFee, uint256 _newPlatformFee);\n\tevent PlatformRevenueAddressChangedEvent(address _oldAddress, address _newAddress);\n\n\tfunction PaymentContract(uint256 _platformFee, address _platformRevenueAddress) public {\n\t\tplatformFee = _platformFee;\n\t\tif (_platformRevenueAddress == 0x0) {\n\t\t\tplatformRevenueAddress = msg.sender;\n\t\t} else {\n\t\t\tplatformRevenueAddress = _platformRevenueAddress;\n\t\t}\n\t\tcurrentOwner = msg.sender;\n\t}\n\n\tfunction setPlatformFee(uint256 _platformFee) public onlyOwner {\n\t\trequire(_platformFee != platformFee);\n\n\t\temit PlatformFeeChangedEvent(platformFee, _platformFee);\n\t\tplatformFee = _platformFee;\n\t}\n\n\tfunction setPlatformRevenueAddress(address _platformRevenueAddress) public \n\t\tonlyOwner\n\t\tvalidAddress(_platformRevenueAddress)\n\t\tnotThis(_platformRevenueAddress)\n\t{\n\t\trequire(_platformRevenueAddress != platformRevenueAddress);\n\n\t\temit PlatformRevenueAddressChangedEvent(platformRevenueAddress, _platformRevenueAddress);\n\t\tplatformRevenueAddress = _platformRevenueAddress;\n\t}\n\n\tfunction handlePayment(address authorAddress, uint256 revenueRate, uint256 value) public {\n\t\tuint256 revenue = calculateRevenue(value, revenueRate);\n\t\tauthorAddress.transfer(revenue);\n\t}\n\n\tfunction calculateFee(uint256 _value) public view returns(uint256) {\n\t\tif (platformFee == 0) {\n\t\t\treturn 0;\n\t\t} else {\n\t\t\treturn calculateRevenue(_value, platformFee);\n\t\t}\n\t}\n\n}",
  "sourcePath": "D:\\Workspace\\vscode\\open-book\\contracts\\PaymentContract.sol",
  "compiler": {
    "name": "solc",
    "version": "0.4.23+commit.124ca40d.Emscripten.clang"
  },
  "schemaVersion": "2.0.0",
  "updatedAt": "2018-04-22T11:24:09.366Z"
}