{
  "contractName": "PaymentUtils",
  "abi": [
    {
      "constant": true,
      "inputs": [],
      "name": "MAX_REVENUE_RATE",
      "outputs": [
        {
          "name": "",
          "type": "uint256"
        }
      ],
      "payable": false,
      "stateMutability": "view",
      "type": "function"
    },
    {
      "constant": true,
      "inputs": [],
      "name": "TEN_PERCENT_IN_PPM",
      "outputs": [
        {
          "name": "",
          "type": "uint256"
        }
      ],
      "payable": false,
      "stateMutability": "view",
      "type": "function"
    },
    {
      "constant": false,
      "inputs": [
        {
          "name": "_newOwner",
          "type": "address"
        }
      ],
      "name": "transferContractOwnership",
      "outputs": [],
      "payable": false,
      "stateMutability": "nonpayable",
      "type": "function"
    },
    {
      "constant": true,
      "inputs": [
        {
          "name": "_str",
          "type": "string"
        }
      ],
      "name": "nonEmpty",
      "outputs": [
        {
          "name": "",
          "type": "bool"
        }
      ],
      "payable": false,
      "stateMutability": "pure",
      "type": "function"
    },
    {
      "constant": true,
      "inputs": [],
      "name": "currentOwner",
      "outputs": [
        {
          "name": "",
          "type": "address"
        }
      ],
      "payable": false,
      "stateMutability": "view",
      "type": "function"
    },
    {
      "constant": true,
      "inputs": [],
      "name": "MIN_REVENUE_RATE",
      "outputs": [
        {
          "name": "",
          "type": "uint256"
        }
      ],
      "payable": false,
      "stateMutability": "view",
      "type": "function"
    },
    {
      "anonymous": false,
      "inputs": [
        {
          "indexed": true,
          "name": "_oldOwner",
          "type": "address"
        },
        {
          "indexed": true,
          "name": "_newOwner",
          "type": "address"
        }
      ],
      "name": "TransferOwnershipEvent",
      "type": "event"
    },
    {
      "constant": true,
      "inputs": [
        {
          "name": "_value",
          "type": "uint256"
        },
        {
          "name": "_rate",
          "type": "uint256"
        }
      ],
      "name": "calculateRevenue",
      "outputs": [
        {
          "name": "revenue",
          "type": "uint256"
        }
      ],
      "payable": false,
      "stateMutability": "pure",
      "type": "function"
    }
  ],
  "bytecode": "0x608060405234801561001057600080fd5b50610519806100206000396000f300608060405260043610610083576000357c0100000000000000000000000000000000000000000000000000000000900463ffffffff1680634c1d205f146100885780635b529adf146100b357806375f96cf5146100de578063a843c51f14610129578063afabd49d1461016c578063b387ef92146101ed578063b8d8776314610244575b600080fd5b34801561009457600080fd5b5061009d61026f565b6040518082815260200191505060405180910390f35b3480156100bf57600080fd5b506100c8610276565b6040518082815260200191505060405180910390f35b3480156100ea57600080fd5b50610113600480360381019080803590602001909291908035906020019092919050505061027d565b6040518082815260200191505060405180910390f35b34801561013557600080fd5b5061016a600480360381019080803573ffffffffffffffffffffffffffffffffffffffff1690602001909291905050506102d0565b005b34801561017857600080fd5b506101d3600480360381019080803590602001908201803590602001908080601f0160208091040260200160405190810160405280939291908181526020018383808284378201915050505050509192919290505050610481565b604051808215151515815260200191505060405180910390f35b3480156101f957600080fd5b5061020261048f565b604051808273ffffffffffffffffffffffffffffffffffffffff1673ffffffffffffffffffffffffffffffffffffffff16815260200191505060405180910390f35b34801561025057600080fd5b506102596104b4565b6040518082815260200191505060405180910390f35b620f424081565b620186a081565b6000620186a08210806102a25750620186a082101580156102a15750620f42408211155b5b156102c657620f42406102b584846104ba565b8115156102be57fe5b0490506102ca565b8290505b92915050565b6000809054906101000a900473ffffffffffffffffffffffffffffffffffffffff1673ffffffffffffffffffffffffffffffffffffffff163373ffffffffffffffffffffffffffffffffffffffff1614151561032b57600080fd5b600073ffffffffffffffffffffffffffffffffffffffff168173ffffffffffffffffffffffffffffffffffffffff161415151561036757600080fd5b6000809054906101000a900473ffffffffffffffffffffffffffffffffffffffff1673ffffffffffffffffffffffffffffffffffffffff168173ffffffffffffffffffffffffffffffffffffffff16141515156103c357600080fd5b8073ffffffffffffffffffffffffffffffffffffffff166000809054906101000a900473ffffffffffffffffffffffffffffffffffffffff1673ffffffffffffffffffffffffffffffffffffffff167f241b06b228f3a02025066c5e13bc2bc49f860b30e902f2fcfba6b409256ba74f60405160405180910390a3806000806101000a81548173ffffffffffffffffffffffffffffffffffffffff021916908373ffffffffffffffffffffffffffffffffffffffff16021790555050565b600080825114159050919050565b6000809054906101000a900473ffffffffffffffffffffffffffffffffffffffff1681565b61271081565b600080828402905060008414806104db57508284828115156104d857fe5b04145b15156104e357fe5b80915050929150505600a165627a7a7230582080cad3975b31a241066560a8b60b3ecf9a2cd4b70784f2518051ad10df3fa3980029",
  "source": "/*\n\tCopyright 2018 Open Store Initiative\n\n\tLicensed under the Apache License, Version 2.0 (the \"License\");\n\tyou may not use this file except in compliance with the License.\n\tYou may obtain a copy of the License at\n\n\t\t\thttp://www.apache.org/licenses/LICENSE-2.0\n\n\tUnless required by applicable law or agreed to in writing, software\n\tdistributed under the License is distributed on an \"AS IS\" BASIS,\n\tWITHOUT WARRANTIES OR CONDITIONS OF ANY KIND, either express or implied.\n\tSee the License for the specific language governing permissions and\n\tlimitations under the License.\n*/\npragma solidity ^0.4.21;\n\nimport \"./Util.sol\";\n\ncontract PaymentUtils is Util {\n\n\tuint256 public constant MIN_REVENUE_RATE   = 10000;   // 1%\n\tuint256 public constant TEN_PERCENT_IN_PPM = 100000;  // 10%\n\tuint256 public constant MAX_REVENUE_RATE   = 1000000; // 100%\n\n\tfunction calculateRevenue(uint256 _value, uint256 _rate) public pure returns(uint256 revenue) {\n\t\tif (_rate < TEN_PERCENT_IN_PPM || _rate >= TEN_PERCENT_IN_PPM && _rate <= MAX_REVENUE_RATE) {\n\t\t\trevenue = safeMul(_value, _rate) / MAX_REVENUE_RATE;\n\t\t} else {\n\t\t\trevenue = _value;\n\t\t}\n\t}\n\n}",
  "sourcePath": "D:\\Workspace\\vscode\\open-book\\contracts\\util\\PaymentUtils.sol",
  "compiler": {
    "name": "solc",
    "version": "0.4.23+commit.124ca40d.Emscripten.clang"
  },
  "schemaVersion": "2.0.0",
  "updatedAt": "2018-04-22T11:24:09.369Z"
}