{
  "contractName": "Util",
  "abi": [
    {
      "constant": true,
      "inputs": [],
      "name": "currentOwner",
      "outputs": [
        {
          "name": "",
          "type": "address"
        }
      ],
      "payable": false,
      "stateMutability": "view",
      "type": "function"
    },
    {
      "anonymous": false,
      "inputs": [
        {
          "indexed": true,
          "name": "_oldOwner",
          "type": "address"
        },
        {
          "indexed": true,
          "name": "_newOwner",
          "type": "address"
        }
      ],
      "name": "TransferOwnershipEvent",
      "type": "event"
    },
    {
      "constant": true,
      "inputs": [
        {
          "name": "_str",
          "type": "string"
        }
      ],
      "name": "nonEmpty",
      "outputs": [
        {
          "name": "",
          "type": "bool"
        }
      ],
      "payable": false,
      "stateMutability": "pure",
      "type": "function"
    },
    {
      "constant": false,
      "inputs": [
        {
          "name": "_newOwner",
          "type": "address"
        }
      ],
      "name": "transferContractOwnership",
      "outputs": [],
      "payable": false,
      "stateMutability": "nonpayable",
      "type": "function"
    }
  ],
  "bytecode": "0x608060405234801561001057600080fd5b50610387806100206000396000f300608060405260043610610057576000357c0100000000000000000000000000000000000000000000000000000000900463ffffffff168063a843c51f1461005c578063afabd49d1461009f578063b387ef9214610120575b600080fd5b34801561006857600080fd5b5061009d600480360381019080803573ffffffffffffffffffffffffffffffffffffffff169060200190929190505050610177565b005b3480156100ab57600080fd5b50610106600480360381019080803590602001908201803590602001908080601f0160208091040260200160405190810160405280939291908181526020018383808284378201915050505050509192919290505050610328565b604051808215151515815260200191505060405180910390f35b34801561012c57600080fd5b50610135610336565b604051808273ffffffffffffffffffffffffffffffffffffffff1673ffffffffffffffffffffffffffffffffffffffff16815260200191505060405180910390f35b6000809054906101000a900473ffffffffffffffffffffffffffffffffffffffff1673ffffffffffffffffffffffffffffffffffffffff163373ffffffffffffffffffffffffffffffffffffffff161415156101d257600080fd5b600073ffffffffffffffffffffffffffffffffffffffff168173ffffffffffffffffffffffffffffffffffffffff161415151561020e57600080fd5b6000809054906101000a900473ffffffffffffffffffffffffffffffffffffffff1673ffffffffffffffffffffffffffffffffffffffff168173ffffffffffffffffffffffffffffffffffffffff161415151561026a57600080fd5b8073ffffffffffffffffffffffffffffffffffffffff166000809054906101000a900473ffffffffffffffffffffffffffffffffffffffff1673ffffffffffffffffffffffffffffffffffffffff167f241b06b228f3a02025066c5e13bc2bc49f860b30e902f2fcfba6b409256ba74f60405160405180910390a3806000806101000a81548173ffffffffffffffffffffffffffffffffffffffff021916908373ffffffffffffffffffffffffffffffffffffffff16021790555050565b600080825114159050919050565b6000809054906101000a900473ffffffffffffffffffffffffffffffffffffffff16815600a165627a7a723058205d1f5835174dfbd4f38111fcc3f72b30407b77a88bf8974ddc7852843085e8fd0029",
  "source": "/*\n\tCopyright 2018 Open Store Initiative\n\n\tLicensed under the Apache License, Version 2.0 (the \"License\");\n\tyou may not use this file except in compliance with the License.\n\tYou may obtain a copy of the License at\n\n\t\t\thttp://www.apache.org/licenses/LICENSE-2.0\n\n\tUnless required by applicable law or agreed to in writing, software\n\tdistributed under the License is distributed on an \"AS IS\" BASIS,\n\tWITHOUT WARRANTIES OR CONDITIONS OF ANY KIND, either express or implied.\n\tSee the License for the specific language governing permissions and\n\tlimitations under the License.\n*/\npragma solidity ^0.4.21;\n\ncontract Util {\n\n\taddress public currentOwner;\n\tevent TransferOwnershipEvent(address indexed _oldOwner, address indexed _newOwner);\n\n\tfunction safeAdd(uint256 _x, uint256 _y) internal pure returns (uint256) {\n\t\tuint256 z = _x + _y;\n\t\tassert(z >= _x);\n\t\treturn z;\n\t}\n\n\tfunction safeSub(uint256 _x, uint256 _y) internal pure returns (uint256) {\n\t\tassert(_x >= _y);\n\t\treturn _x - _y;\n\t}\n\n\tfunction safeMul(uint256 _x, uint256 _y) internal pure returns (uint256) {\n\t\tuint256 z = _x * _y;\n\t\tassert(_x == 0 || z / _x == _y);\n\t\treturn z;\n\t}\n\n\tfunction nonEmpty(string _str) public pure returns(bool) {\n\t\treturn bytes(_str).length != 0;\n\t}\n\n\tfunction transferContractOwnership(address _newOwner) public onlyOwner {\n\t\trequire(_newOwner != address(0));\n\t\trequire(_newOwner != currentOwner);\n\t\temit TransferOwnershipEvent(currentOwner, _newOwner);\n\t\tcurrentOwner = _newOwner;\n\t}\n\n\tmodifier greaterThanZero(uint256 _amount) {\n\t\trequire(_amount > 0);\n\t\t_;\n\t}\n\n\tmodifier validAddress(address _address) {\n\t\trequire(_address != 0x0);\n\t\t_;\n\t}\n\n\tmodifier notThis(address _address) {\n\t\trequire(_address != address(this));\n\t\t_;\n\t}\n\n\tmodifier onlyOwner() {\n\t\trequire(msg.sender == currentOwner);\n\t\t_;\n\t}\n\n}",
  "sourcePath": "D:\\Workspace\\vscode\\open-book\\contracts\\util\\Util.sol",
  "compiler": {
    "name": "solc",
    "version": "0.4.23+commit.124ca40d.Emscripten.clang"
  },
  "schemaVersion": "2.0.0",
  "updatedAt": "2018-04-22T11:24:09.368Z"
}